{
  "_format": "hh-sol-artifact-1",
  "contractName": "OKIDOKY",
  "sourceName": "contracts/OKIDOKY.sol",
  "abi": [
    {
      "inputs": [],
      "stateMutability": "nonpayable",
      "type": "constructor"
    },
    {
      "anonymous": false,
      "inputs": [
        {
          "indexed": true,
          "internalType": "address",
          "name": "from",
          "type": "address"
        },
        {
          "indexed": false,
          "internalType": "uint256",
          "name": "timestamp",
          "type": "uint256"
        },
        {
          "indexed": false,
          "internalType": "string",
          "name": "message",
          "type": "string"
        }
      ],
      "name": "AlarmStop",
      "type": "event"
    },
    {
      "inputs": [],
      "name": "getAlarmHistory",
      "outputs": [
        {
          "components": [
            {
              "internalType": "address",
              "name": "user",
              "type": "address"
            },
            {
              "internalType": "string",
              "name": "message",
              "type": "string"
            },
            {
              "internalType": "uint256",
              "name": "timestamp",
              "type": "uint256"
            }
          ],
          "internalType": "struct OKIDOKY.Alarm[]",
          "name": "",
          "type": "tuple[]"
        }
      ],
      "stateMutability": "view",
      "type": "function"
    },
    {
      "inputs": [
        {
          "internalType": "string",
          "name": "_message",
          "type": "string"
        }
      ],
      "name": "writeAlarm",
      "outputs": [],
      "stateMutability": "nonpayable",
      "type": "function"
    }
  ],
  "bytecode": "0x60806040523480156200001157600080fd5b50620000586040518060400160405280601981526020017f4f4b49444f4b59202d20536d61727420436f6e747261637421000000000000008152506200005e60201b60201c565b62000258565b620000fe8160405160240162000075919062000205565b6040516020818303038152906040527f41304fac000000000000000000000000000000000000000000000000000000007bffffffffffffffffffffffffffffffffffffffffffffffffffffffff19166020820180517bffffffffffffffffffffffffffffffffffffffffffffffffffffffff83818316178352505050506200010160201b60201c565b50565b6200012781620001226200012a60201b6200031e176200014b60201b60201c565b60201c565b50565b60006a636f6e736f6c652e6c6f679050600080835160208501845afa505050565b6200015f60201b6200040317819050919050565b6200016962000229565b565b600081519050919050565b600082825260208201905092915050565b60005b83811015620001a75780820151818401526020810190506200018a565b60008484015250505050565b6000601f19601f8301169050919050565b6000620001d1826200016b565b620001dd818562000176565b9350620001ef81856020860162000187565b620001fa81620001b3565b840191505092915050565b60006020820190508181036000830152620002218184620001c4565b905092915050565b7f4e487b7100000000000000000000000000000000000000000000000000000000600052605160045260246000fd5b610bdd80620002686000396000f3fe608060405234801561001057600080fd5b50600436106100365760003560e01c8063109c67e11461003b5780637db58c4414610057575b600080fd5b61005560048036038101906100509190610567565b610075565b005b61005f6101cd565b60405161006c919061079b565b60405180910390f35b6100b56040518060400160405280601881526020017f257320616c61726d656420772f206d6573736167652025730000000000000000815250338361033f565b600060405180606001604052803373ffffffffffffffffffffffffffffffffffffffff16815260200183815260200142815250908060018154018082558091505060019003906000526020600020906003020160009091909190915060008201518160000160006101000a81548173ffffffffffffffffffffffffffffffffffffffff021916908373ffffffffffffffffffffffffffffffffffffffff160217905550602082015181600101908161016d91906109c9565b506040820151816002015550503373ffffffffffffffffffffffffffffffffffffffff167f7b8b5f05f8c74b4e27280b7fe96e5ae2802b00f05535b7ac91d2c121871ef66342836040516101c2929190610af4565b60405180910390a250565b60606000805480602002602001604051908101604052809291908181526020016000905b8282101561031557838290600052602060002090600302016040518060600160405290816000820160009054906101000a900473ffffffffffffffffffffffffffffffffffffffff1673ffffffffffffffffffffffffffffffffffffffff1673ffffffffffffffffffffffffffffffffffffffff16815260200160018201805461027a906107ec565b80601f01602080910402602001604051908101604052809291908181526020018280546102a6906107ec565b80156102f35780601f106102c8576101008083540402835291602001916102f3565b820191906000526020600020905b8154815290600101906020018083116102d657829003601f168201915b50505050508152602001600282015481525050815260200190600101906101f1565b50505050905090565b60006a636f6e736f6c652e6c6f679050600080835160208501845afa505050565b6103d983838360405160240161035793929190610b33565b6040516020818303038152906040527fe0e9ad4f000000000000000000000000000000000000000000000000000000007bffffffffffffffffffffffffffffffffffffffffffffffffffffffff19166020820180517bffffffffffffffffffffffffffffffffffffffffffffffffffffffff83818316178352505050506103de565b505050565b6103f5816103ed61031e6103f8565b63ffffffff16565b50565b610403819050919050565b61040b610b78565b565b6000604051905090565b600080fd5b600080fd5b600080fd5b600080fd5b6000601f19601f8301169050919050565b7f4e487b7100000000000000000000000000000000000000000000000000000000600052604160045260246000fd5b6104748261042b565b810181811067ffffffffffffffff821117156104935761049261043c565b5b80604052505050565b60006104a661040d565b90506104b2828261046b565b919050565b600067ffffffffffffffff8211156104d2576104d161043c565b5b6104db8261042b565b9050602081019050919050565b82818337600083830152505050565b600061050a610505846104b7565b61049c565b90508281526020810184848401111561052657610525610426565b5b6105318482856104e8565b509392505050565b600082601f83011261054e5761054d610421565b5b813561055e8482602086016104f7565b91505092915050565b60006020828403121561057d5761057c610417565b5b600082013567ffffffffffffffff81111561059b5761059a61041c565b5b6105a784828501610539565b91505092915050565b600081519050919050565b600082825260208201905092915050565b6000819050602082019050919050565b600073ffffffffffffffffffffffffffffffffffffffff82169050919050565b6000610607826105dc565b9050919050565b610617816105fc565b82525050565b600081519050919050565b600082825260208201905092915050565b60005b8381101561065757808201518184015260208101905061063c565b60008484015250505050565b600061066e8261061d565b6106788185610628565b9350610688818560208601610639565b6106918161042b565b840191505092915050565b6000819050919050565b6106af8161069c565b82525050565b60006060830160008301516106cd600086018261060e565b50602083015184820360208601526106e58282610663565b91505060408301516106fa60408601826106a6565b508091505092915050565b600061071183836106b5565b905092915050565b6000602082019050919050565b6000610731826105b0565b61073b81856105bb565b93508360208202850161074d856105cc565b8060005b85811015610789578484038952815161076a8582610705565b945061077583610719565b925060208a01995050600181019050610751565b50829750879550505050505092915050565b600060208201905081810360008301526107b58184610726565b905092915050565b7f4e487b7100000000000000000000000000000000000000000000000000000000600052602260045260246000fd5b6000600282049050600182168061080457607f821691505b602082108103610817576108166107bd565b5b50919050565b60008190508160005260206000209050919050565b60006020601f8301049050919050565b600082821b905092915050565b60006008830261087f7fffffffffffffffffffffffffffffffffffffffffffffffffffffffffffffffff82610842565b6108898683610842565b95508019841693508086168417925050509392505050565b6000819050919050565b60006108c66108c16108bc8461069c565b6108a1565b61069c565b9050919050565b6000819050919050565b6108e0836108ab565b6108f46108ec826108cd565b84845461084f565b825550505050565b600090565b6109096108fc565b6109148184846108d7565b505050565b5b818110156109385761092d600082610901565b60018101905061091a565b5050565b601f82111561097d5761094e8161081d565b61095784610832565b81016020851015610966578190505b61097a61097285610832565b830182610919565b50505b505050565b600082821c905092915050565b60006109a060001984600802610982565b1980831691505092915050565b60006109b9838361098f565b9150826002028217905092915050565b6109d28261061d565b67ffffffffffffffff8111156109eb576109ea61043c565b5b6109f582546107ec565b610a0082828561093c565b600060209050601f831160018114610a335760008415610a21578287015190505b610a2b85826109ad565b865550610a93565b601f198416610a418661081d565b60005b82811015610a6957848901518255600182019150602085019450602081019050610a44565b86831015610a865784890151610a82601f89168261098f565b8355505b6001600288020188555050505b505050505050565b610aa48161069c565b82525050565b600082825260208201905092915050565b6000610ac68261061d565b610ad08185610aaa565b9350610ae0818560208601610639565b610ae98161042b565b840191505092915050565b6000604082019050610b096000830185610a9b565b8181036020830152610b1b8184610abb565b90509392505050565b610b2d816105fc565b82525050565b60006060820190508181036000830152610b4d8186610abb565b9050610b5c6020830185610b24565b8181036040830152610b6e8184610abb565b9050949350505050565b7f4e487b7100000000000000000000000000000000000000000000000000000000600052605160045260246000fdfea26469706673582212207f3dbcfc80023cdae94770c5056dde324fa364ddb5335543fefffdfd8dcc6cfd64736f6c63430008130033",
  "linkReferences": {},
  "deployedLinkReferences": {}
}