{
  "_format": "hh-sol-artifact-1",
  "contractName": "OKIDOKY",
  "sourceName": "contracts/OKIDOKY.sol",
  "abi": [
    {
      "inputs": [],
      "stateMutability": "nonpayable",
      "type": "constructor"
    },
    {
      "anonymous": false,
      "inputs": [
        {
          "indexed": true,
          "internalType": "address",
          "name": "from",
          "type": "address"
        },
        {
          "indexed": false,
          "internalType": "uint256",
          "name": "timestamp",
          "type": "uint256"
        },
        {
          "indexed": false,
          "internalType": "string",
          "name": "message",
          "type": "string"
        }
      ],
      "name": "NewAlarm",
      "type": "event"
    },
    {
      "inputs": [],
      "name": "getLatestAlarm",
      "outputs": [
        {
          "components": [
            {
              "internalType": "address",
              "name": "alarmer",
              "type": "address"
            },
            {
              "internalType": "string",
              "name": "message",
              "type": "string"
            },
            {
              "internalType": "uint256",
              "name": "timestamp",
              "type": "uint256"
            }
          ],
          "internalType": "struct OKIDOKY.Alarm",
          "name": "",
          "type": "tuple"
        }
      ],
      "stateMutability": "view",
      "type": "function"
    },
    {
      "inputs": [
        {
          "internalType": "string",
          "name": "_message",
          "type": "string"
        }
      ],
      "name": "writeAlarm",
      "outputs": [],
      "stateMutability": "nonpayable",
      "type": "function"
    }
  ],
  "bytecode": "0x60806040523480156200001157600080fd5b50620000586040518060400160405280601981526020017f4f4b49444f4b59202d20536d61727420436f6e747261637421000000000000008152506200005e60201b60201c565b62000258565b620000fe8160405160240162000075919062000205565b6040516020818303038152906040527f41304fac000000000000000000000000000000000000000000000000000000007bffffffffffffffffffffffffffffffffffffffffffffffffffffffff19166020820180517bffffffffffffffffffffffffffffffffffffffffffffffffffffffff83818316178352505050506200010160201b60201c565b50565b6200012781620001226200012a60201b620002b0176200014b60201b60201c565b60201c565b50565b60006a636f6e736f6c652e6c6f679050600080835160208501845afa505050565b6200015f60201b6200039517819050919050565b6200016962000229565b565b600081519050919050565b600082825260208201905092915050565b60005b83811015620001a75780820151818401526020810190506200018a565b60008484015250505050565b6000601f19601f8301169050919050565b6000620001d1826200016b565b620001dd818562000176565b9350620001ef81856020860162000187565b620001fa81620001b3565b840191505092915050565b60006020820190508181036000830152620002218184620001c4565b905092915050565b7f4e487b7100000000000000000000000000000000000000000000000000000000600052605160045260246000fd5b610ae480620002686000396000f3fe608060405234801561001057600080fd5b50600436106100365760003560e01c8063109c67e11461003b578063ab57eaa614610057575b600080fd5b61005560048036038101906100509190610530565b610075565b005b61005f6101a4565b60405161006c91906106a2565b60405180910390f35b6100b56040518060400160405280601881526020017f257320616c61726d656420772f206d657373616765202573000000000000000081525033836102d1565b60405180606001604052803373ffffffffffffffffffffffffffffffffffffffff168152602001828152602001428152506000808201518160000160006101000a81548173ffffffffffffffffffffffffffffffffffffffff021916908373ffffffffffffffffffffffffffffffffffffffff160217905550602082015181600101908161014391906108d0565b50604082015181600201559050503373ffffffffffffffffffffffffffffffffffffffff167f2bc63c4142b6ffea53374b1304f47f0da34c0f9a63e7cb2a5f2fac7a12c05da842836040516101999291906109fb565b60405180910390a250565b6101ac61039f565b60006040518060600160405290816000820160009054906101000a900473ffffffffffffffffffffffffffffffffffffffff1673ffffffffffffffffffffffffffffffffffffffff1673ffffffffffffffffffffffffffffffffffffffff16815260200160018201805461021f906106f3565b80601f016020809104026020016040519081016040528092919081815260200182805461024b906106f3565b80156102985780601f1061026d57610100808354040283529160200191610298565b820191906000526020600020905b81548152906001019060200180831161027b57829003601f168201915b50505050508152602001600282015481525050905090565b60006a636f6e736f6c652e6c6f679050600080835160208501845afa505050565b61036b8383836040516024016102e993929190610a3a565b6040516020818303038152906040527fe0e9ad4f000000000000000000000000000000000000000000000000000000007bffffffffffffffffffffffffffffffffffffffffffffffffffffffff19166020820180517bffffffffffffffffffffffffffffffffffffffffffffffffffffffff8381831617835250505050610370565b505050565b6103878161037f6102b061038a565b63ffffffff16565b50565b610395819050919050565b61039d610a7f565b565b6040518060600160405280600073ffffffffffffffffffffffffffffffffffffffff16815260200160608152602001600081525090565b6000604051905090565b600080fd5b600080fd5b600080fd5b600080fd5b6000601f19601f8301169050919050565b7f4e487b7100000000000000000000000000000000000000000000000000000000600052604160045260246000fd5b61043d826103f4565b810181811067ffffffffffffffff8211171561045c5761045b610405565b5b80604052505050565b600061046f6103d6565b905061047b8282610434565b919050565b600067ffffffffffffffff82111561049b5761049a610405565b5b6104a4826103f4565b9050602081019050919050565b82818337600083830152505050565b60006104d36104ce84610480565b610465565b9050828152602081018484840111156104ef576104ee6103ef565b5b6104fa8482856104b1565b509392505050565b600082601f830112610517576105166103ea565b5b81356105278482602086016104c0565b91505092915050565b600060208284031215610546576105456103e0565b5b600082013567ffffffffffffffff811115610564576105636103e5565b5b61057084828501610502565b91505092915050565b600073ffffffffffffffffffffffffffffffffffffffff82169050919050565b60006105a482610579565b9050919050565b6105b481610599565b82525050565b600081519050919050565b600082825260208201905092915050565b60005b838110156105f45780820151818401526020810190506105d9565b60008484015250505050565b600061060b826105ba565b61061581856105c5565b93506106258185602086016105d6565b61062e816103f4565b840191505092915050565b6000819050919050565b61064c81610639565b82525050565b600060608301600083015161066a60008601826105ab565b50602083015184820360208601526106828282610600565b91505060408301516106976040860182610643565b508091505092915050565b600060208201905081810360008301526106bc8184610652565b905092915050565b7f4e487b7100000000000000000000000000000000000000000000000000000000600052602260045260246000fd5b6000600282049050600182168061070b57607f821691505b60208210810361071e5761071d6106c4565b5b50919050565b60008190508160005260206000209050919050565b60006020601f8301049050919050565b600082821b905092915050565b6000600883026107867fffffffffffffffffffffffffffffffffffffffffffffffffffffffffffffffff82610749565b6107908683610749565b95508019841693508086168417925050509392505050565b6000819050919050565b60006107cd6107c86107c384610639565b6107a8565b610639565b9050919050565b6000819050919050565b6107e7836107b2565b6107fb6107f3826107d4565b848454610756565b825550505050565b600090565b610810610803565b61081b8184846107de565b505050565b5b8181101561083f57610834600082610808565b600181019050610821565b5050565b601f8211156108845761085581610724565b61085e84610739565b8101602085101561086d578190505b61088161087985610739565b830182610820565b50505b505050565b600082821c905092915050565b60006108a760001984600802610889565b1980831691505092915050565b60006108c08383610896565b9150826002028217905092915050565b6108d9826105ba565b67ffffffffffffffff8111156108f2576108f1610405565b5b6108fc82546106f3565b610907828285610843565b600060209050601f83116001811461093a5760008415610928578287015190505b61093285826108b4565b86555061099a565b601f19841661094886610724565b60005b828110156109705784890151825560018201915060208501945060208101905061094b565b8683101561098d5784890151610989601f891682610896565b8355505b6001600288020188555050505b505050505050565b6109ab81610639565b82525050565b600082825260208201905092915050565b60006109cd826105ba565b6109d781856109b1565b93506109e78185602086016105d6565b6109f0816103f4565b840191505092915050565b6000604082019050610a1060008301856109a2565b8181036020830152610a2281846109c2565b90509392505050565b610a3481610599565b82525050565b60006060820190508181036000830152610a5481866109c2565b9050610a636020830185610a2b565b8181036040830152610a7581846109c2565b9050949350505050565b7f4e487b7100000000000000000000000000000000000000000000000000000000600052605160045260246000fdfea26469706673582212201d2d3c0a7396fbb35a3eb9151f61112be12984c79cadca8fe10c86e684f0735a64736f6c63430008130033",
  "linkReferences": {},
  "deployedLinkReferences": {}
}